{"abi":[{"type":"function","name":"verify","inputs":[{"name":"proof","type":"tuple","internalType":"struct Binius64Verifier.Binius64Proof","components":[{"name":"oracleCommitment","type":"bytes32","internalType":"bytes32"},{"name":"numVariables","type":"uint256","internalType":"uint256"},{"name":"publicInput","type":"tuple","internalType":"struct Binius64Verifier.PublicInput","components":[{"name":"values","type":"uint256[]","internalType":"uint256[]"}]},{"name":"constraints","type":"tuple","internalType":"struct Binius64Verifier.ConstraintProof","components":[{"name":"shiftSumcheck","type":"tuple","internalType":"struct SumcheckVerifier.SumcheckProof","components":[{"name":"rounds","type":"tuple[]","internalType":"struct SumcheckVerifier.RoundPoly[]","components":[{"name":"coeffs","type":"uint256[4]","internalType":"uint256[4]"}]}]},{"name":"mulSumcheck","type":"tuple","internalType":"struct SumcheckVerifier.SumcheckProof","components":[{"name":"rounds","type":"tuple[]","internalType":"struct SumcheckVerifier.RoundPoly[]","components":[{"name":"coeffs","type":"uint256[4]","internalType":"uint256[4]"}]}]},{"name":"andSumcheck","type":"tuple","internalType":"struct SumcheckVerifier.SumcheckProof","components":[{"name":"rounds","type":"tuple[]","internalType":"struct SumcheckVerifier.RoundPoly[]","components":[{"name":"coeffs","type":"uint256[4]","internalType":"uint256[4]"}]}]}]},{"name":"ringSwitchProof","type":"tuple","internalType":"struct BiniusPCSVerifier.RingSwitchProof","components":[{"name":"sumcheckProof","type":"tuple","internalType":"struct SumcheckVerifier.SumcheckProof","components":[{"name":"rounds","type":"tuple[]","internalType":"struct SumcheckVerifier.RoundPoly[]","components":[{"name":"coeffs","type":"uint256[4]","internalType":"uint256[4]"}]}]},{"name":"innerEval","type":"uint256","internalType":"uint256"}]},{"name":"friProof","type":"tuple","internalType":"struct FRIVerifier.FRIProof","components":[{"name":"commitments","type":"tuple[]","internalType":"struct FRIVerifier.FRIRoundCommitment[]","components":[{"name":"merkleRoot","type":"bytes32","internalType":"bytes32"}]},{"name":"queries","type":"tuple[]","internalType":"struct FRIVerifier.FRIQuery[]","components":[{"name":"queryIndex","type":"uint256","internalType":"uint256"},{"name":"rounds","type":"tuple[]","internalType":"struct FRIVerifier.FRIQueryRound[]","components":[{"name":"val0","type":"uint256","internalType":"uint256"},{"name":"val1","type":"uint256","internalType":"uint256"},{"name":"merkleProof0","type":"bytes32[]","internalType":"bytes32[]"},{"name":"merkleProof1","type":"bytes32[]","internalType":"bytes32[]"}]},{"name":"finalValue","type":"uint256","internalType":"uint256"}]},{"name":"finalPoly","type":"uint256","internalType":"uint256"}]}]}],"outputs":[{"name":"valid","type":"bool","internalType":"bool"}],"stateMutability":"pure"}],"bytecode":{"object":"0x60808060405234601557611963908161001a8239f35b5f80fdfe6080806040526004361015610012575f80fd5b5f3560e01c63642a009914610025575f80fd5b346108165760207ffffffffffffffffffffffffffffffffffffffffffffffffffffffffffffffffc3601126108165760043567ffffffffffffffff81116108165780600401918136039260c07ffffffffffffffffffffffffffffffffffffffffffffffffffffffffffffffffc850112610816576100a58294939461081a565b601182525f602083017f62696e69757336342d736e61726b2d76310000000000000000000000000000008152604051936100de8561081a565b8285526020850191838352610138603f604051809360208201957f62696e69757336342d736f6c69646974792d7472616e7363726970742d76310087525180918484015e810187838201520301601f19810183528261086e565b51902084525280359361014b8584610988565b60248101359461015b8685610988565b60448201955f5b61017561016f8987610891565b806108c4565b90508110156101a857806101a261019b60019361019561016f8d8b610891565b90610918565b3588610988565b01610162565b5084908685604051926101ba8461081a565b5f8452806020850152610255856101f18160648b01976101eb6101e66101e08b8a610955565b80610891565b610a4d565b90610b98565b95610225826040516102028161081a565b5f81528660208201526101eb6101e661021b868b610955565b6020810190610891565b506101eb6101e661024b6040519361023c8561081a565b5f855287602086015288610955565b6040810190610891565b50604051956102638761081a565b86526020860152602083519301516040519361027e8561081a565b845260208401527fffffffffffffffffffffffffffffffffffffffffffffffffffffffffffffffbd608487013592018212156108165760a461030392870196600488016024604051996102d08b61081a565b6040516102dc81610836565b606081528b526102f66101e660208d01945f865280610891565b8b52013590520190610955565b936040519261031184610852565b6060845260208401916060835260408501935f855261033088806108c4565b9050601f1961035761034183610a11565b9261034f604051948561086e565b808452610a11565b015f5b8181106107f857505086525f5b61037189806108c4565b905081101561039f578061038b6001926101958c806108c4565b35610397828a51610a39565b515201610367565b509091879495969260208601926103b684886108c4565b9050601f196103c761034183610a11565b015f5b8181106107ba57505086525f945b6103e285896108c4565b9050861015610786579897929190856103fb868a6108c4565b6104059291610dad565b358688519061041391610a39565b515285610420868a6108c4565b61042a9291610dad565b604001358688519061043b91610a39565b51604001528561044b868a6108c4565b6104559291610dad565b60208101610462916108c4565b9a905061046e8b610a11565b9a6040519b61047d908d61086e565b808c5261048990610a11565b601f19015f5b81811061070757505088999a60206104aa898b9c9b51610a39565b5101526104cf6104c5886104bf895f9c6108c4565b90610dad565b60208101906108c4565b90508810156106f257899a8960406105958b60208f8d61058e6105878f8661054761057e866104bf858f9a8b8d610576896105559f610555898561057e9f85610547610564856104bf858f889b61055d888b6105558861054d8461056d9f61053e846104bf610547938d6108c4565b868101906108c4565b90610dc7565b359551610a39565b510151610a39565b51526108c4565b848101906108c4565b01359651610a39565b5101526108c4565b888101906108c4565b9050610b67565b9651610a39565b51015287878a5f8d8f5b6105c16105b7856105476104c58a6104bf8b886108c4565b60408101906108c4565b9050831015610616579061060d8360406105558760206105558c610605876101958f8760019f9e6105fc876104bf6105fc95610547946108c4565b898101906108c4565b359851610a39565b52018d8f61059f565b509495969798999f602091508461058e61058761057e8661054761057e60609b6104bf6106469c6105559a6108c4565b5101528961066d6106638a6105476104c58c6104bf8d5f986108c4565b60608101906108c4565b90508110156106d4579087878a60018e9f99989796958f8f908260606105558760206105558c610605876101958f876105476105fc876106b49f6105fc956104bf916108c4565b52019394959697989e6104c561066d946104bf61066395610547946108c4565b506104cf6104c5886104bf8960018f9d019c9f99989796959f6108c4565b939897965060019095019491929091906103d8565b60409b92939495969b5190608082019180831067ffffffffffffffff8411176107595760208f839082956040525f84525f8385015260606040850152606080850152010152019a95949392919a61048f565b7f4e487b71000000000000000000000000000000000000000000000000000000005f52604160045260245ffd5b602095506107b09450898960408a01359052604051936107a58561081a565b845286840152610e07565b6040519015158152f35b60209060409c9496989597999a9b9c516107d381610852565b5f81526060838201525f6040820152828286010152019a99989795939694929a6103ca565b60209060405161080781610836565b5f81528282860101520161035a565b5f80fd5b6040810190811067ffffffffffffffff82111761075957604052565b6020810190811067ffffffffffffffff82111761075957604052565b6060810190811067ffffffffffffffff82111761075957604052565b90601f601f19910116810190811067ffffffffffffffff82111761075957604052565b9035907fffffffffffffffffffffffffffffffffffffffffffffffffffffffffffffffe181360301821215610816570190565b9035907fffffffffffffffffffffffffffffffffffffffffffffffffffffffffffffffe181360301821215610816570180359067ffffffffffffffff821161081657602001918160051b3603831361081657565b91908110156109285760051b0190565b7f4e487b71000000000000000000000000000000000000000000000000000000005f52603260045260245ffd5b9035907fffffffffffffffffffffffffffffffffffffffffffffffffffffffffffffffa181360301821215610816570190565b6020905f92815190604051908482019286845260218301526041820152604181526109b460618261086e565b51902081520152565b9035907fffffffffffffffffffffffffffffffffffffffffffffffffffffffffffffffe181360301821215610816570180359067ffffffffffffffff821161081657602001918160071b3603831361081657565b67ffffffffffffffff81116107595760051b60200190565b91908110156109285760071b0190565b80518210156109285760209160051b010190565b90604051610a5a81610836565b6060815280610a6984806109bd565b9050601f19610a7a61034183610a11565b015f5b818110610b3857505082525f5b610a9485806109bd565b9050811015610b325780610ab4600192610aae88806109bd565b90610a29565b35610ac0828651610a39565b5151526020610ad382610aae89806109bd565b01356020610ae2838751610a39565b515101526040610af682610aae89806109bd565b01356040610b05838751610a39565b515101526060610b1982610aae89806109bd565b01356060610b28838751610a39565b5151015201610a8a565b50925050565b602090604051610b4781610836565b6040516080610b56818361086e565b368237815282828601015201610a7d565b90610b7182610a11565b610b7e604051918261086e565b828152601f19610b8e8294610a11565b0190602036910137565b91929060405190610ba88261081a565b6060825260208201925f84528290825151956020810196875103610d2957610bd08751610b67565b855251945f955b8751871015610d1d57610beb878651610a39565b5190610bf98251518b610988565b610c086020835101518b610988565b610c176040835101518b610988565b610c266060835101518b610988565b8151518251516020845101511860408451015118606084510151181803610c9a57600190610c8e610c568b610f57565b80610c628b8b51610a39565b52610c8281610c7681606087510151611328565b60408651015118611328565b60208451015118611328565b90515118960195610bd7565b60846040517f08c379a0000000000000000000000000000000000000000000000000000000008152602060048201526024808201527f53756d636865636b56657269666965723a20726f756e6420636865636b20666160448201527f696c6564000000000000000000000000000000000000000000000000000000006064820152fd5b95509350945094505052565b60846040517f08c379a000000000000000000000000000000000000000000000000000000000815260206004820152602860248201527f53756d636865636b56657269666965723a2077726f6e67206e756d626572206f60448201527f6620726f756e64730000000000000000000000000000000000000000000000006064820152fd5b9082101561092857610dc49160051b810190610955565b90565b91908110156109285760051b810135907fffffffffffffffffffffffffffffffffffffffffffffffffffffffffffffff8181360301821215610816570190565b939093929192845151936020820194855103610ef957610e28825185610988565b610e33855185610988565b5f5b86518051821015610e5d5790610e57610e5082600194610a39565b5187610988565b01610e35565b5050919483610e8091959295610e77602082015183610988565b84519087610fce565b15610ef157602090519101602081510151519360018301808411610ec457610dc49560405194610eaf86610852565b855260208501526040840152519051906110f1565b7f4e487b71000000000000000000000000000000000000000000000000000000005f52601160045260245ffd5b505050505f90565b60646040517f08c379a000000000000000000000000000000000000000000000000000000000815260206004820152601d60248201527f5043533a20706f696e742064696d656e73696f6e206d69736d617463680000006044820152fd5b6020815191019081516040519060208201927f010000000000000000000000000000000000000000000000000000000000000084526021830152604182015260418152610fa560618261086e565b5190208151915f198314610ec45760016fffffffffffffffffffffffffffffffff930190521690565b836020610ffe929693949596015160208501519060405191610fef8361081a565b82526020820152855190610b98565b9151908251948251865103611093575f9360015b845186101561105f5761105760019161102b8888610a39565b516110506110398a8d610a39565b519185806110478584611328565b94189118611328565b1890611328565b950194611012565b94509250936020809296506110779101519384611328565b9101510361108d5761108891610988565b600190565b50505f90565b60646040517f08c379a000000000000000000000000000000000000000000000000000000000815260206004820152601760248201527f65714576616c3a206c656e677468206d69736d617463680000000000000000006044820152fd5b929093918451518151036112ca576020850180515193602083019485510361126c5761111d8351610b67565b945f5b845181101561115c578061114261113a6001938c51610a39565b515188610988565b61114b87610f57565b611155828a610a39565b5201611120565b509091949392969561116e8251610b67565b95600160408a01511b955f9987159a5b85518110156111da578b9061119289610f57565b916111ad5789600192066111a6828d610a39565b520161117e565b7f4e487b71000000000000000000000000000000000000000000000000000000005f52601260045260245ffd5b5093979892965093985093505f5b865181101561122e576112156111fe828a610a39565b5161120a838851610a39565b51908686868b61139c565b15611222576001016111e8565b50505050505050505f90565b50949550505090505f5b835181101561126357604061124e828451610a39565b510151604084015103610ef157600101611238565b50505050600190565b60646040517f08c379a000000000000000000000000000000000000000000000000000000000815260206004820152601c60248201527f4652493a2077726f6e67206e756d626572206f662071756572696573000000006044820152fd5b60646040517f08c379a000000000000000000000000000000000000000000000000000000000815260206004820152602060248201527f4652493a2077726f6e67206e756d626572206f6620636f6d6d69746d656e74736044820152fd5b9061136e67ffffffffffffffff8084169360401c169267ffffffffffffffff8084169360401c169361135a84836114e4565b9461136581836114e4565b941891186114e4565b818363ffffffff8260201c166113838161168f565b63ffffffff84161860201b179218181860401b91181790565b95929094919360208301908151518651036114865796916040860151925f985b87518a101561147757848a611452576113ef91835b8c6113e86113e0828a51610a39565b519188610a39565b519161153a565b5f1981146114445760018a01808b11610ec457885114611434575b6fffffffffffffffffffffffffffffffff16935f198101908111610ec457600190990198936113bc565b60408601518160801c031561140a575b505050505050925050505f90565b508851905f198b01908b8211610ec45761147087926113ef94610a39565b51516113d1565b50505050505092505050600190565b60646040517f08c379a000000000000000000000000000000000000000000000000000000000815260206004820152601f60248201527f4652493a20717565727920726f756e6420636f756e74206d69736d61746368006044820152fd5b9061152263ffffffff8084169360201c169263ffffffff8084169360201c169361150e848361163d565b94611519818361163d565b9418911861163d565b818361152d8261168f565b9218181860201b91181790565b92939190915f198101908111610ec4576001901b938481101561162d57935b840192838511610ec45761157d61157084516116ae565b86604086015191846116d3565b15611623576115a090602084019461159586516116ae565b6060860151926116d3565b1561161a5761161291519251831867ffffffffffffffff8082169160401c16906115e160016115cf81846114e4565b936115da5f826114e4565b93186114e4565b818363ffffffff8260201c166115f68161168f565b63ffffffff84161860201b179218181860401b91181790611328565b1860801b1790565b505050505f1990565b50505050505f1990565b848103908111610ec45793611559565b9061167761ffff8084169360101c169261ffff8084169360101c16936116638483611758565b9461166e8183611758565b94189118611758565b8183611682826117a8565b9218181860101b91181790565b61ffff8160101c169061ffff6116a4836117a8565b91161860101b1790565b60405160208101915f83526021820152602181526116cd60418261086e565b51902090565b92935f92915b855184101561174f576001906116ef8588610a39565b5184831661172657604051906020820192835260408201526040815261171660608261086e565b519020925b811c930192916116d9565b90604051906020820192835260408201526040815261174660608261086e565b5190209261171b565b92509350501490565b9061179060ff8084169360081c169260ff8084169360081c169361177c84836117c5565b9461178781836117c5565b941891186117c5565b818361179b82611815565b9218181860081b91181790565b60ff8160081c169060ff6117bb83611815565b91161860081b1790565b906117fd600f8084169360041c1692600f8084169360041c16936117e98483611832565b946117f48183611832565b94189118611832565b818361180882611901565b9218181860041b91181790565b600f8160041c1690600f61182883611901565b91161860041b1790565b906118e260038084169360021c169260038084169360021c169361187e8483600181811c9280821c9082818516169384918480851691161890848088169116181618821b931616181790565b946118b18183600181811c9280821c9082818516169384918480851691161890848088169116181618821b931616181790565b94189118600181811c9280821c9082818516169384918480851691161890848088169116181618821b931616181790565b8183600182811c8116818416811890911b179218181860021b91181790565b60038160021c16906003611923836001908181811c16918291161860011b1790565b91161860021b179056fea2646970667358221220dc4ef18f33fbcef3257eeebc18ed2a7956c162bc7621611a28736ef025deb33b64736f6c634300081e0033","linkReferences":{}},"methodIdentifiers":{"verify((bytes32,uint256,(uint256[]),(((uint256[4])[]),((uint256[4])[]),((uint256[4])[])),(((uint256[4])[]),uint256),((bytes32)[],(uint256,(uint256,uint256,bytes32[],bytes32[])[],uint256)[],uint256)))":"642a0099"},"id":21}